{
  "_format": "hh-sol-artifact-1",
  "contractName": "gasChallenge",
  "sourceName": "contracts/gasChallenge.sol",
  "abi": [
    {
      "inputs": [],
      "name": "getSumOfArray",
      "outputs": [
        {
          "internalType": "uint256",
          "name": "",
          "type": "uint256"
        }
      ],
      "stateMutability": "view",
      "type": "function"
    },
    {
      "inputs": [],
      "name": "notOptimizedFunction",
      "outputs": [],
      "stateMutability": "nonpayable",
      "type": "function"
    },
    {
      "inputs": [],
      "name": "optimizedFunction",
      "outputs": [],
      "stateMutability": "nonpayable",
      "type": "function"
    }
  ],
  "bytecode": "0x6080604052604051806101400160405280600160ff168152602001600260ff168152602001600360ff168152602001600460ff168152602001600560ff168152602001600660ff168152602001600760ff168152602001600860ff168152602001600960ff168152602001600a60ff16815250600090600a610082929190610095565b5034801561008f57600080fd5b506100f7565b82600a81019282156100c9579160200282015b828111156100c8578251829060ff169055916020019190600101906100a8565b5b5090506100d691906100da565b5090565b5b808211156100f35760008160009055506001016100db565b5090565b610299806101066000396000f3fe608060405234801561001057600080fd5b50600436106100415760003560e01c806368b5f223146100465780637ce418941461005057806380d2c8031461005a575b600080fd5b61004e610078565b005b6100586100b4565b005b610062610104565b60405161006f919061016e565b60405180910390f35b60005b600a8110156100b15760008082600a811061009957610098610189565b5b018190555080806100a9906101e7565b91505061007b565b50565b6000805b600a81101561010057600081600a81106100d5576100d4610189565b5b01548201915060008082600a81106100f0576100ef610189565b5b01819055508060010190506100b8565b5050565b6000806000905060005b600a81101561014d57600081600a811061012b5761012a610189565b5b015482610138919061022f565b91508080610145906101e7565b91505061010e565b508091505090565b6000819050919050565b61016881610155565b82525050565b6000602082019050610183600083018461015f565b92915050565b7f4e487b7100000000000000000000000000000000000000000000000000000000600052603260045260246000fd5b7f4e487b7100000000000000000000000000000000000000000000000000000000600052601160045260246000fd5b60006101f282610155565b91507fffffffffffffffffffffffffffffffffffffffffffffffffffffffffffffffff8203610224576102236101b8565b5b600182019050919050565b600061023a82610155565b915061024583610155565b925082820190508082111561025d5761025c6101b8565b5b9291505056fea264697066735822122042563a95c4df9413d3ebba039dc81272b2e8bd3fa3dee380e1a54e5ec3dca9c664736f6c63430008120033",
  "linkReferences": {},
  "deployedLinkReferences": {}
}